{
  "contractName": "RapidCoin",
  "abi": [
    {
      "constant": true,
      "inputs": [],
      "name": "name",
      "outputs": [
        {
          "name": "",
          "type": "string"
        }
      ],
      "payable": false,
      "stateMutability": "view",
      "type": "function"
    },
    {
      "constant": false,
      "inputs": [
        {
          "name": "_spender",
          "type": "address"
        },
        {
          "name": "_value",
          "type": "uint256"
        }
      ],
      "name": "approve",
      "outputs": [
        {
          "name": "",
          "type": "bool"
        }
      ],
      "payable": false,
      "stateMutability": "nonpayable",
      "type": "function"
    },
    {
      "constant": true,
      "inputs": [],
      "name": "totalSupply",
      "outputs": [
        {
          "name": "",
          "type": "uint256"
        }
      ],
      "payable": false,
      "stateMutability": "view",
      "type": "function"
    },
    {
      "constant": true,
      "inputs": [],
      "name": "priceOfToken",
      "outputs": [
        {
          "name": "",
          "type": "uint256"
        }
      ],
      "payable": false,
      "stateMutability": "view",
      "type": "function"
    },
    {
      "constant": false,
      "inputs": [
        {
          "name": "_from",
          "type": "address"
        },
        {
          "name": "_to",
          "type": "address"
        },
        {
          "name": "_value",
          "type": "uint256"
        }
      ],
      "name": "transferFrom",
      "outputs": [
        {
          "name": "success",
          "type": "bool"
        }
      ],
      "payable": false,
      "stateMutability": "nonpayable",
      "type": "function"
    },
    {
      "constant": true,
      "inputs": [],
      "name": "decimals",
      "outputs": [
        {
          "name": "",
          "type": "uint256"
        }
      ],
      "payable": false,
      "stateMutability": "view",
      "type": "function"
    },
    {
      "constant": false,
      "inputs": [
        {
          "name": "daysToExtend",
          "type": "uint256"
        }
      ],
      "name": "extendDeadline",
      "outputs": [],
      "payable": false,
      "stateMutability": "nonpayable",
      "type": "function"
    },
    {
      "constant": false,
      "inputs": [],
      "name": "unpause",
      "outputs": [],
      "payable": false,
      "stateMutability": "nonpayable",
      "type": "function"
    },
    {
      "constant": false,
      "inputs": [],
      "name": "kill",
      "outputs": [],
      "payable": false,
      "stateMutability": "nonpayable",
      "type": "function"
    },
    {
      "constant": false,
      "inputs": [
        {
          "name": "_accountByOwner",
          "type": "address"
        },
        {
          "name": "balanceToTransfer",
          "type": "uint256"
        }
      ],
      "name": "transferLimitedFundToAccount",
      "outputs": [],
      "payable": false,
      "stateMutability": "nonpayable",
      "type": "function"
    },
    {
      "constant": true,
      "inputs": [],
      "name": "version",
      "outputs": [
        {
          "name": "",
          "type": "string"
        }
      ],
      "payable": false,
      "stateMutability": "view",
      "type": "function"
    },
    {
      "constant": true,
      "inputs": [],
      "name": "paused",
      "outputs": [
        {
          "name": "",
          "type": "bool"
        }
      ],
      "payable": false,
      "stateMutability": "view",
      "type": "function"
    },
    {
      "constant": false,
      "inputs": [
        {
          "name": "_spender",
          "type": "address"
        },
        {
          "name": "_subtractedValue",
          "type": "uint256"
        }
      ],
      "name": "decreaseApproval",
      "outputs": [
        {
          "name": "success",
          "type": "bool"
        }
      ],
      "payable": false,
      "stateMutability": "nonpayable",
      "type": "function"
    },
    {
      "constant": true,
      "inputs": [
        {
          "name": "_owner",
          "type": "address"
        }
      ],
      "name": "balanceOf",
      "outputs": [
        {
          "name": "balance",
          "type": "uint256"
        }
      ],
      "payable": false,
      "stateMutability": "view",
      "type": "function"
    },
    {
      "constant": false,
      "inputs": [],
      "name": "pause",
      "outputs": [],
      "payable": false,
      "stateMutability": "nonpayable",
      "type": "function"
    },
    {
      "constant": true,
      "inputs": [],
      "name": "owner",
      "outputs": [
        {
          "name": "",
          "type": "address"
        }
      ],
      "payable": false,
      "stateMutability": "view",
      "type": "function"
    },
    {
      "constant": true,
      "inputs": [],
      "name": "symbol",
      "outputs": [
        {
          "name": "",
          "type": "string"
        }
      ],
      "payable": false,
      "stateMutability": "view",
      "type": "function"
    },
    {
      "constant": false,
      "inputs": [
        {
          "name": "_to",
          "type": "address"
        },
        {
          "name": "_value",
          "type": "uint256"
        }
      ],
      "name": "transfer",
      "outputs": [
        {
          "name": "",
          "type": "bool"
        }
      ],
      "payable": false,
      "stateMutability": "nonpayable",
      "type": "function"
    },
    {
      "constant": false,
      "inputs": [
        {
          "name": "_userAdd",
          "type": "address"
        }
      ],
      "name": "resetTokenOfAddress",
      "outputs": [],
      "payable": false,
      "stateMutability": "nonpayable",
      "type": "function"
    },
    {
      "constant": true,
      "inputs": [],
      "name": "priceOfTokenPREICO",
      "outputs": [
        {
          "name": "",
          "type": "uint256"
        }
      ],
      "payable": false,
      "stateMutability": "view",
      "type": "function"
    },
    {
      "constant": false,
      "inputs": [
        {
          "name": "_spender",
          "type": "address"
        },
        {
          "name": "_addedValue",
          "type": "uint256"
        }
      ],
      "name": "increaseApproval",
      "outputs": [
        {
          "name": "success",
          "type": "bool"
        }
      ],
      "payable": false,
      "stateMutability": "nonpayable",
      "type": "function"
    },
    {
      "constant": true,
      "inputs": [
        {
          "name": "_owner",
          "type": "address"
        },
        {
          "name": "_spender",
          "type": "address"
        }
      ],
      "name": "allowance",
      "outputs": [
        {
          "name": "remaining",
          "type": "uint256"
        }
      ],
      "payable": false,
      "stateMutability": "view",
      "type": "function"
    },
    {
      "constant": false,
      "inputs": [
        {
          "name": "_accountByOwner",
          "type": "address"
        }
      ],
      "name": "transferFundToAccount",
      "outputs": [],
      "payable": false,
      "stateMutability": "nonpayable",
      "type": "function"
    },
    {
      "inputs": [],
      "payable": false,
      "stateMutability": "nonpayable",
      "type": "constructor"
    },
    {
      "payable": true,
      "stateMutability": "payable",
      "type": "fallback"
    },
    {
      "anonymous": false,
      "inputs": [],
      "name": "Pause",
      "type": "event"
    },
    {
      "anonymous": false,
      "inputs": [],
      "name": "Unpause",
      "type": "event"
    },
    {
      "anonymous": false,
      "inputs": [
        {
          "indexed": true,
          "name": "owner",
          "type": "address"
        },
        {
          "indexed": true,
          "name": "spender",
          "type": "address"
        },
        {
          "indexed": false,
          "name": "value",
          "type": "uint256"
        }
      ],
      "name": "Approval",
      "type": "event"
    },
    {
      "anonymous": false,
      "inputs": [
        {
          "indexed": true,
          "name": "from",
          "type": "address"
        },
        {
          "indexed": true,
          "name": "to",
          "type": "address"
        },
        {
          "indexed": false,
          "name": "value",
          "type": "uint256"
        }
      ],
      "name": "Transfer",
      "type": "event"
    }
  ],
  "bytecode": "0x60606040526000600160146101000a81548160ff0219169083151502179055506601c6bf526340006005556602f5e9891d3880600655341561004057600080fd5b60006012600a0a6402540be400026000819055506012600a0a64011b1f3f8002600781905550600054905080600260003373ffffffffffffffffffffffffffffffffffffffff1673ffffffffffffffffffffffffffffffffffffffff16815260200190815260200160002081905550600060048190555033600160006101000a81548173ffffffffffffffffffffffffffffffffffffffff021916908373ffffffffffffffffffffffffffffffffffffffff16021790555042600881905550650161cfe2c1ff6009819055506501612ab59a00600a81905550650160df153c18600b8190555050611b25806101366000396000f300606060405260043610610133576000357c0100000000000000000000000000000000000000000000000000000000900463ffffffff16806306fdde0314610319578063095ea7b3146103a757806318160ddd146104015780631b9cbdfb1461042a57806323b872dd14610453578063313ce567146104cc578063389b7533146104f55780633f4ba83a1461051857806341c0e1b51461052d578063424983891461054257806354fd4d50146105845780635c975abb14610612578063661884631461063f57806370a08231146106995780638456cb59146106e65780638da5cb5b146106fb57806395d89b4114610750578063a9059cbb146107de578063a9f0022114610838578063ad224cc614610871578063d73dd6231461089a578063dd62ed3e146108f4578063ea8d103f14610960575b600080600080600160149054906101000a900460ff1615151561015557600080fd5b60003373ffffffffffffffffffffffffffffffffffffffff161415151561017b57600080fd5b600854421015151561018c57600080fd5b600b54421115151561019d57600080fd5b6000935060095442101561020d576005546012600a0a34028115156101be57fe5b0493506000925062093a80600854014210156101dd57600a92506101f2565b62127500600854014210156101f157600592505b5b606483850281151561020057fe5b0491508184019350610238565b600a54421115610232576006546012600a0a340281151561022a57fe5b049350610237565b600080fd5b5b8360036000600160009054906101000a900473ffffffffffffffffffffffffffffffffffffffff1673ffffffffffffffffffffffffffffffffffffffff1673ffffffffffffffffffffffffffffffffffffffff16815260200190815260200160002060003373ffffffffffffffffffffffffffffffffffffffff1673ffffffffffffffffffffffffffffffffffffffff16815260200190815260200160002060008282540192505081905550610311600160009054906101000a900473ffffffffffffffffffffffffffffffffffffffff163386610999565b905050505050005b341561032457600080fd5b61032c610bf0565b6040518080602001828103825283818151815260200191508051906020019080838360005b8381101561036c578082015181840152602081019050610351565b50505050905090810190601f1680156103995780820380516001836020036101000a031916815260200191505b509250505060405180910390f35b34156103b257600080fd5b6103e7600480803573ffffffffffffffffffffffffffffffffffffffff16906020019091908035906020019091905050610c29565b604051808215151515815260200191505060405180910390f35b341561040c57600080fd5b610414610d1b565b6040518082815260200191505060405180910390f35b341561043557600080fd5b61043d610d21565b6040518082815260200191505060405180910390f35b341561045e57600080fd5b6104b2600480803573ffffffffffffffffffffffffffffffffffffffff1690602001909190803573ffffffffffffffffffffffffffffffffffffffff16906020019091908035906020019091905050610999565b604051808215151515815260200191505060405180910390f35b34156104d757600080fd5b6104df610d27565b6040518082815260200191505060405180910390f35b341561050057600080fd5b6105166004808035906020019091905050610d2c565b005b341561052357600080fd5b61052b610d9f565b005b341561053857600080fd5b610540610e63565b005b341561054d57600080fd5b610582600480803573ffffffffffffffffffffffffffffffffffffffff16906020019091908035906020019091905050610ef6565b005b341561058f57600080fd5b610597610fba565b6040518080602001828103825283818151815260200191508051906020019080838360005b838110156105d75780820151818401526020810190506105bc565b50505050905090810190601f1680156106045780820380516001836020036101000a031916815260200191505b509250505060405180910390f35b341561061d57600080fd5b610625610ff3565b604051808215151515815260200191505060405180910390f35b341561064a57600080fd5b61067f600480803573ffffffffffffffffffffffffffffffffffffffff16906020019091908035906020019091905050611006565b604051808215151515815260200191505060405180910390f35b34156106a457600080fd5b6106d0600480803573ffffffffffffffffffffffffffffffffffffffff16906020019091905050611297565b6040518082815260200191505060405180910390f35b34156106f157600080fd5b6106f96112e0565b005b341561070657600080fd5b61070e6113a4565b604051808273ffffffffffffffffffffffffffffffffffffffff1673ffffffffffffffffffffffffffffffffffffffff16815260200191505060405180910390f35b341561075b57600080fd5b6107636113ca565b6040518080602001828103825283818151815260200191508051906020019080838360005b838110156107a3578082015181840152602081019050610788565b50505050905090810190601f1680156107d05780820380516001836020036101000a031916815260200191505b509250505060405180910390f35b34156107e957600080fd5b61081e600480803573ffffffffffffffffffffffffffffffffffffffff16906020019091908035906020019091905050611403565b604051808215151515815260200191505060405180910390f35b341561084357600080fd5b61086f600480803573ffffffffffffffffffffffffffffffffffffffff16906020019091905050611627565b005b341561087c57600080fd5b610884611783565b6040518082815260200191505060405180910390f35b34156108a557600080fd5b6108da600480803573ffffffffffffffffffffffffffffffffffffffff16906020019091908035906020019091905050611789565b604051808215151515815260200191505060405180910390f35b34156108ff57600080fd5b61094a600480803573ffffffffffffffffffffffffffffffffffffffff1690602001909190803573ffffffffffffffffffffffffffffffffffffffff16906020019091905050611985565b6040518082815260200191505060405180910390f35b341561096b57600080fd5b610997600480803573ffffffffffffffffffffffffffffffffffffffff16906020019091905050611a0c565b005b6000808473ffffffffffffffffffffffffffffffffffffffff16141515156109c057600080fd5b60008373ffffffffffffffffffffffffffffffffffffffff16141515156109e657600080fd5b6000821115156109f557600080fd5b81600260008673ffffffffffffffffffffffffffffffffffffffff1673ffffffffffffffffffffffffffffffffffffffff1681526020019081526020016000205410158015610a4d575081610a4a8585611985565b10155b15610be45781600260008573ffffffffffffffffffffffffffffffffffffffff1673ffffffffffffffffffffffffffffffffffffffff1681526020019081526020016000206000828254019250508190555081600260008673ffffffffffffffffffffffffffffffffffffffff1673ffffffffffffffffffffffffffffffffffffffff1681526020019081526020016000206000828254039250508190555081600360008673ffffffffffffffffffffffffffffffffffffffff1673ffffffffffffffffffffffffffffffffffffffff16815260200190815260200160002060008573ffffffffffffffffffffffffffffffffffffffff1673ffffffffffffffffffffffffffffffffffffffff168152602001908152602001600020600082825403925050819055508273ffffffffffffffffffffffffffffffffffffffff168473ffffffffffffffffffffffffffffffffffffffff167fddf252ad1be2c89b69c2b068fc378daa952ba7f163c4a11628f55a4df523b3ef846040518082815260200191505060405180910390a360019050610be9565b600090505b9392505050565b6040805190810160405280600881526020017f526170696470617900000000000000000000000000000000000000000000000081525081565b600081600360003373ffffffffffffffffffffffffffffffffffffffff1673ffffffffffffffffffffffffffffffffffffffff16815260200190815260200160002060008573ffffffffffffffffffffffffffffffffffffffff1673ffffffffffffffffffffffffffffffffffffffff168152602001908152602001600020819055508273ffffffffffffffffffffffffffffffffffffffff163373ffffffffffffffffffffffffffffffffffffffff167f8c5be1e5ebec7d5bd14f71427d1e84f3dd0314c0f7b2291e5b200ac8c7c3b925846040518082815260200191505060405180910390a36001905092915050565b60005481565b60065481565b601281565b3373ffffffffffffffffffffffffffffffffffffffff16600160009054906101000a900473ffffffffffffffffffffffffffffffffffffffff1673ffffffffffffffffffffffffffffffffffffffff161415610d9757620151808102600b5401600b81905550610d9c565b600080fd5b50565b3373ffffffffffffffffffffffffffffffffffffffff16600160009054906101000a900473ffffffffffffffffffffffffffffffffffffffff1673ffffffffffffffffffffffffffffffffffffffff161415610e5c57600160149054906101000a900460ff161515610e1057600080fd5b6000600160146101000a81548160ff0219169083151502179055507f7805862f689e2f13df9f062ff482ad3ad112aca9e0847911ed832e158c525b3360405160405180910390a1610e61565b600080fd5b565b600160009054906101000a900473ffffffffffffffffffffffffffffffffffffffff1673ffffffffffffffffffffffffffffffffffffffff163373ffffffffffffffffffffffffffffffffffffffff161415610ef457600160009054906101000a900473ffffffffffffffffffffffffffffffffffffffff1673ffffffffffffffffffffffffffffffffffffffff16ff5b565b3373ffffffffffffffffffffffffffffffffffffffff16600160009054906101000a900473ffffffffffffffffffffffffffffffffffffffff1673ffffffffffffffffffffffffffffffffffffffff161415610fb15780600454111515610f5c57600080fd5b8173ffffffffffffffffffffffffffffffffffffffff166108fc829081150290604051600060405180830381858888f193505050501515610f9c57600080fd5b80600460008282540392505081905550610fb6565b600080fd5b5050565b6040805190810160405280600381526020017f312e30000000000000000000000000000000000000000000000000000000000081525081565b600160149054906101000a900460ff1681565b600080600360003373ffffffffffffffffffffffffffffffffffffffff1673ffffffffffffffffffffffffffffffffffffffff16815260200190815260200160002060008573ffffffffffffffffffffffffffffffffffffffff1673ffffffffffffffffffffffffffffffffffffffff16815260200190815260200160002054905080831115611117576000600360003373ffffffffffffffffffffffffffffffffffffffff1673ffffffffffffffffffffffffffffffffffffffff16815260200190815260200160002060008673ffffffffffffffffffffffffffffffffffffffff1673ffffffffffffffffffffffffffffffffffffffff168152602001908152602001600020819055506111ab565b61112a8382611ac290919063ffffffff16565b600360003373ffffffffffffffffffffffffffffffffffffffff1673ffffffffffffffffffffffffffffffffffffffff16815260200190815260200160002060008673ffffffffffffffffffffffffffffffffffffffff1673ffffffffffffffffffffffffffffffffffffffff168152602001908152602001600020819055505b8373ffffffffffffffffffffffffffffffffffffffff163373ffffffffffffffffffffffffffffffffffffffff167f8c5be1e5ebec7d5bd14f71427d1e84f3dd0314c0f7b2291e5b200ac8c7c3b925600360003373ffffffffffffffffffffffffffffffffffffffff1673ffffffffffffffffffffffffffffffffffffffff16815260200190815260200160002060008873ffffffffffffffffffffffffffffffffffffffff1673ffffffffffffffffffffffffffffffffffffffff168152602001908152602001600020546040518082815260200191505060405180910390a3600191505092915050565b6000600260008373ffffffffffffffffffffffffffffffffffffffff1673ffffffffffffffffffffffffffffffffffffffff168152602001908152602001600020549050919050565b3373ffffffffffffffffffffffffffffffffffffffff16600160009054906101000a900473ffffffffffffffffffffffffffffffffffffffff1673ffffffffffffffffffffffffffffffffffffffff16141561139d57600160149054906101000a900460ff1615151561135257600080fd5b60018060146101000a81548160ff0219169083151502179055507f6985a02210a168e66602d3235cb6db0e70f92b3ba4d376a33c0f3d9434bff62560405160405180910390a16113a2565b600080fd5b565b600160009054906101000a900473ffffffffffffffffffffffffffffffffffffffff1681565b6040805190810160405280600381526020017f524450000000000000000000000000000000000000000000000000000000000081525081565b60008073ffffffffffffffffffffffffffffffffffffffff168373ffffffffffffffffffffffffffffffffffffffff161415151561144057600080fd5b600260003373ffffffffffffffffffffffffffffffffffffffff1673ffffffffffffffffffffffffffffffffffffffff16815260200190815260200160002054821115151561148e57600080fd5b6114e082600260003373ffffffffffffffffffffffffffffffffffffffff1673ffffffffffffffffffffffffffffffffffffffff16815260200190815260200160002054611ac290919063ffffffff16565b600260003373ffffffffffffffffffffffffffffffffffffffff1673ffffffffffffffffffffffffffffffffffffffff1681526020019081526020016000208190555061157582600260008673ffffffffffffffffffffffffffffffffffffffff1673ffffffffffffffffffffffffffffffffffffffff16815260200190815260200160002054611adb90919063ffffffff16565b600260008573ffffffffffffffffffffffffffffffffffffffff1673ffffffffffffffffffffffffffffffffffffffff168152602001908152602001600020819055508273ffffffffffffffffffffffffffffffffffffffff163373ffffffffffffffffffffffffffffffffffffffff167fddf252ad1be2c89b69c2b068fc378daa952ba7f163c4a11628f55a4df523b3ef846040518082815260200191505060405180910390a36001905092915050565b60003373ffffffffffffffffffffffffffffffffffffffff16600160009054906101000a900473ffffffffffffffffffffffffffffffffffffffff1673ffffffffffffffffffffffffffffffffffffffff16141561177a57600260008373ffffffffffffffffffffffffffffffffffffffff1673ffffffffffffffffffffffffffffffffffffffff1681526020019081526020016000205490506000600260008473ffffffffffffffffffffffffffffffffffffffff1673ffffffffffffffffffffffffffffffffffffffff168152602001908152602001600020819055508060026000600160009054906101000a900473ffffffffffffffffffffffffffffffffffffffff1673ffffffffffffffffffffffffffffffffffffffff1673ffffffffffffffffffffffffffffffffffffffff1681526020019081526020016000206000828254019250508190555061177f565b600080fd5b5050565b60055481565b600061181a82600360003373ffffffffffffffffffffffffffffffffffffffff1673ffffffffffffffffffffffffffffffffffffffff16815260200190815260200160002060008673ffffffffffffffffffffffffffffffffffffffff1673ffffffffffffffffffffffffffffffffffffffff16815260200190815260200160002054611adb90919063ffffffff16565b600360003373ffffffffffffffffffffffffffffffffffffffff1673ffffffffffffffffffffffffffffffffffffffff16815260200190815260200160002060008573ffffffffffffffffffffffffffffffffffffffff1673ffffffffffffffffffffffffffffffffffffffff168152602001908152602001600020819055508273ffffffffffffffffffffffffffffffffffffffff163373ffffffffffffffffffffffffffffffffffffffff167f8c5be1e5ebec7d5bd14f71427d1e84f3dd0314c0f7b2291e5b200ac8c7c3b925600360003373ffffffffffffffffffffffffffffffffffffffff1673ffffffffffffffffffffffffffffffffffffffff16815260200190815260200160002060008773ffffffffffffffffffffffffffffffffffffffff1673ffffffffffffffffffffffffffffffffffffffff168152602001908152602001600020546040518082815260200191505060405180910390a36001905092915050565b6000600360008473ffffffffffffffffffffffffffffffffffffffff1673ffffffffffffffffffffffffffffffffffffffff16815260200190815260200160002060008373ffffffffffffffffffffffffffffffffffffffff1673ffffffffffffffffffffffffffffffffffffffff16815260200190815260200160002054905092915050565b3373ffffffffffffffffffffffffffffffffffffffff16600160009054906101000a900473ffffffffffffffffffffffffffffffffffffffff1673ffffffffffffffffffffffffffffffffffffffff161415611aba576000600454111515611a7357600080fd5b8073ffffffffffffffffffffffffffffffffffffffff166108fc6004549081150290604051600060405180830381858888f193505050501515611ab557600080fd5b611abf565b600080fd5b50565b6000828211151515611ad057fe5b818303905092915050565b6000808284019050838110151515611aef57fe5b80915050929150505600a165627a7a72305820cd2123f3316a3b454d613e36e81ae1d80550fbfd3e6f3c19b38d355bde0ae7ea0029",
  "source": "pragma solidity ^0.4.16;\ncontract Ownable {\n    address public owner;\n\n        modifier onlyOwner() { //This modifier is for checking owner is calling\n        if (owner == msg.sender) {\n            _;\n        } else {\n            revert();\n        }\n\n    }\n\n}\n\n/**\n * @title SafeMath\n * @dev Math operations with safety checks that throw on error\n */\nlibrary SafeMath {\n  function mul(uint256 a, uint256 b) internal constant returns (uint256) {\n    uint256 c = a * b;\n    assert(a == 0 || c / a == b);\n    return c;\n  }\n\n  function div(uint256 a, uint256 b) internal constant returns (uint256) {\n    assert(b > 0); // Solidity automatically throws when dividing by 0\n    uint256 c = a / b;\n    // assert(a == b * c + a % b); // There is no case in which this doesn't hold\n    return c;\n  }\n\n  function sub(uint256 a, uint256 b) internal constant returns (uint256) {\n    assert(b <= a);\n    return a - b;\n  }\n\n  function add(uint256 a, uint256 b) internal constant returns (uint256) {\n    uint256 c = a + b;\n    assert(c >= a);\n    return c;\n  }\n}\n\ncontract Mortal is Ownable {\n    \n    function kill()  public{\n        if (msg.sender == owner)\n            selfdestruct(owner);\n    }\n}\ncontract Pausable is Mortal {\n  event Pause();\n  event Unpause();\n\n  bool public paused = false;\n\n\n  /**\n   * @dev modifier to allow actions only when the contract IS paused\n   */\n  modifier whenNotPaused() {\n    require(!paused);\n    _;\n  }\n\n  /**\n   * @dev modifier to allow actions only when the contract IS NOT paused\n   */\n  modifier whenPaused() {\n    require(paused);\n    _;\n  }\n\n  /**\n   * @dev called by the owner to pause, triggers stopped state\n   */\n  function pause()public onlyOwner whenNotPaused {\n    paused = true;\n    Pause();\n  }\n\n  /**\n   * @dev called by the owner to unpause, returns to normal state\n   */\n  function unpause()public onlyOwner whenPaused {\n    paused = false;\n    Unpause();\n  }\n}\n\n/**\n * @title ERC20Basic\n * @dev Simpler version of ERC20 interface\n */\ncontract ERC20Basic {\n  uint256 public totalSupply;\n  function balanceOf(address who) public constant returns (uint256);\n  function transfer(address to, uint256 value) public returns (bool);\n  event Transfer(address indexed from, address indexed to, uint256 value);\n}\n\n/**\n * @title Basic token\n * @dev Basic version of StandardToken, with no allowances.\n */\n contract BasicToken is ERC20Basic, Pausable {\n  using SafeMath for uint256;\n  mapping(address => uint256) balances;\n\n  /**\n  * @dev transfer token for a specified address\n  * @param _to The address to transfer to.\n  * @param _value The amount to be transferred.\n  */\n  function transfer(address _to, uint256 _value) public  returns (bool) {\n    require(_to != address(0));\n    require(_value <= balances[msg.sender]);\n    // SafeMath.sub will throw if there is not enough balance.\n    balances[msg.sender] = balances[msg.sender].sub(_value);\n    balances[_to] = balances[_to].add(_value);\n    Transfer(msg.sender, _to, _value);\n    return true;\n  }\n\n\n  /**\n  * @dev Gets the balance of the specified address.\n  * @param _owner The address to query the the balance of.\n  * @return An uint256 representing the amount owned by the passed address.\n  */\n  function balanceOf(address _owner) public constant returns (uint256 balance) {\n    return balances[_owner];\n  }\n\n}\n/**\n * @title ERC20 interface\n * @dev see https://github.com/ethereum/EIPs/issues/20\n */\ncontract ERC20 is ERC20Basic {\n  function allowance(address owner, address spender) public constant returns (uint256);\n  function transferFrom(address from, address to, uint256 value) public returns (bool);\n  function approve(address spender, uint256 value) public returns (bool);\n  event Approval(address indexed owner, address indexed spender, uint256 value);\n}\n\ncontract StandardToken is ERC20, BasicToken {\n\n  mapping (address => mapping (address => uint256)) internal allowed;\n\n\n  /**\n   * @dev Transfer tokens from one address to another\n   * @param _from address The address which you want to send tokens from\n   * @param _to address The address which you want to transfer to\n   * @param _value uint256 the amount of tokens to be transferred\n   */\n    function transferFrom(address _from, address _to, uint256 _value) returns(bool success) {\n        require(_from != 0x0); //check addres is valid\n        require(_to != 0x0); //check addres is valid\n        require(_value > 0);\n        if (balances[_from] >= _value && allowance(_from, _to) >= _value) {\n            balances[_to] += _value;\n            balances[_from] -= _value;\n            allowed[_from][_to] -= _value;\n            Transfer(_from, _to, _value);\n            return true;\n        }\n        return false;\n    }\n  /**\n   * @dev Approve the passed address to spend the specified amount of tokens on behalf of msg.sender.\n   *\n   * Beware that changing an allowance with this method brings the risk that someone may use both the old\n   * and the new allowance by unfortunate transaction ordering. One possible solution to mitigate this\n   * race condition is to first reduce the spender's allowance to 0 and set the desired value afterwards:\n   * https://github.com/ethereum/EIPs/issues/20#issuecomment-263524729\n   * @param _spender The address which will spend the funds.\n   * @param _value The amount of tokens to be spent.\n   */\n  function approve(address _spender, uint256 _value) public returns (bool) {\n    allowed[msg.sender][_spender] = _value;\n    Approval(msg.sender, _spender, _value);\n    return true;\n  }\n\n  /**\n   * @dev Function to check the amount of tokens that an owner allowed to a spender.\n   * @param _owner address The address which owns the funds.\n   * @param _spender address The address which will spend the funds.\n   * @return A uint256 specifying the amount of tokens still available for the spender.\n   */\n  function allowance(address _owner, address _spender) public constant returns (uint256 remaining) {\n    return allowed[_owner][_spender];\n  }\n\n  /**\n   * approve should be called when allowed[_spender] == 0. To increment\n   * allowed value is better to use this function to avoid 2 calls (and wait until\n   * the first transaction is mined)\n   */\n  function increaseApproval (address _spender, uint _addedValue) public returns (bool success) {\n    allowed[msg.sender][_spender] = allowed[msg.sender][_spender].add(_addedValue);\n    Approval(msg.sender, _spender, allowed[msg.sender][_spender]);\n    return true;\n  }\n\n  function decreaseApproval (address _spender, uint _subtractedValue) public returns (bool success) {\n    uint oldValue = allowed[msg.sender][_spender];\n    if (_subtractedValue > oldValue) {\n      allowed[msg.sender][_spender] = 0;\n    } else {\n      allowed[msg.sender][_spender] = oldValue.sub(_subtractedValue);\n    }\n    Approval(msg.sender, _spender, allowed[msg.sender][_spender]);\n    return true;\n  }\n\n}\n\n\ncontract RapidCoin is StandardToken {\n    string public constant name = 'Rapidpay';\n    uint public constant decimals = 18;\n    string public constant symbol = 'RDP';\n    string public constant version = '1.0';\n    uint amountRaised;\n    uint public priceOfTokenPREICO=500000000000000;// 1 ETH = 2000 RDP\n    uint public priceOfToken = 833333330000000; //1 ETH  =  1200 RDP\n    uint256 tokenSaleLimit;\n    uint256 preSaleStartDate;\n    uint256 preSaleEndDate;\n    uint256 saleStartDate;\n    uint256 saleEndDate;\n\n    //TODO presale 4 weeks but full sale start after 4 week\n    function RapidCoin () public {\n        totalSupply = 10 * (10 ** 9) * (10 ** decimals); //10 billion\n        tokenSaleLimit = 475 * (10 ** 7) * (10 ** decimals); //4.75 billions\n        uint256 ownerTokens = totalSupply ; //we assign 10 million to acccountant firstly. \n        balances[msg.sender] = ownerTokens;\n        amountRaised = 0;\n        owner = msg.sender;\n        preSaleStartDate = now;//1516840000000; //January 25 2018 00 : 00  UTC\n        preSaleEndDate = 1519611199999; // FEB 26 2018 00 : 00 UTC\n        saleStartDate = 1516840000000; //January 25 2018 00 : 00  UTC\n        saleEndDate = 1515571199000; //January 10 2018 UTC 8 AM and 4 week after presale\n    }\n    function () payable whenNotPaused {\n        require(msg.sender !=0x0);\n        require(now>=preSaleStartDate);\n        require(now<=saleEndDate);\n        uint256 tokens =0;\n        if(now<preSaleEndDate){\n            //presLe handle\n             tokens = (msg.value * (10 ** decimals)) / priceOfTokenPREICO;\n             uint bonus = 0;\n             if(now < (preSaleStartDate  + 7 * 1  days)){\n                 bonus = 10;\n             }else if (now < (preSaleStartDate  +14 * 1  days)){\n                 bonus = 5;\n             }\n            uint bonusTokens = (tokens * bonus) /100;\n            tokens += bonusTokens;\n            \n        }\n        else if(now>saleStartDate){\n            //here sale start date\n            tokens = (msg.value * (10 ** decimals)) / priceOfToken;\n        }//end of else if for sale start date\n        else {\n            revert(); //this revert is between pre sale and sale time gap\n        }\n        allowed[owner][msg.sender]+=tokens;\n        bool result =  transferFrom(owner,msg.sender,tokens);\n    }//end of function callback\n    \n    //function ext\n\n    /**\n    * Transfer entire balance to any account (by owner and admin only)\n    **/\n    function transferFundToAccount(address _accountByOwner) public onlyOwner {\n        require(amountRaised > 0);\n        _accountByOwner.transfer(amountRaised);\n    }\n\n    function resetTokenOfAddress(address _userAdd)public onlyOwner {\n      uint256 userBal=  balances[_userAdd] ;\n      balances[_userAdd] = 0;\n      balances[owner] +=userBal;\n    }\n    /**\n    * Transfer part of balance to any account (by owner and admin only)\n    **/\n    function transferLimitedFundToAccount(address _accountByOwner, uint256 balanceToTransfer) public onlyOwner   {\n        require(amountRaised > balanceToTransfer);\n        _accountByOwner.transfer(balanceToTransfer);\n        amountRaised -= balanceToTransfer;\n    }\n    \n       /**\n   * @dev called by the owner to extend deadline relative to last deadLine Time,\n   * to accept ether and transfer tokens\n   */\n   function extendDeadline(uint daysToExtend)public onlyOwner{\n       saleEndDate = saleEndDate +daysToExtend * 1 days;\n   }\n\n}//end of contract\n",
  "sourcePath": "/Users/derain/Projects/coinrapid-global-ico-audit/contracts/RapidCoin.sol",
  "compiler": {
    "name": "solc",
    "version": "0.4.18+commit.9cf6e910.Emscripten.clang"
  },
  "schemaVersion": "1.0.1",
  "updatedAt": "2017-12-10T15:13:05.206Z"
}