{
  "contractName": "RapidCoin",
  "abi": [
    {
      "constant": true,
      "inputs": [],
      "name": "name",
      "outputs": [
        {
          "name": "",
          "type": "string"
        }
      ],
      "payable": false,
      "stateMutability": "view",
      "type": "function"
    },
    {
      "constant": false,
      "inputs": [
        {
          "name": "_spender",
          "type": "address"
        },
        {
          "name": "_value",
          "type": "uint256"
        }
      ],
      "name": "approve",
      "outputs": [
        {
          "name": "",
          "type": "bool"
        }
      ],
      "payable": false,
      "stateMutability": "nonpayable",
      "type": "function"
    },
    {
      "constant": true,
      "inputs": [],
      "name": "totalSupply",
      "outputs": [
        {
          "name": "",
          "type": "uint256"
        }
      ],
      "payable": false,
      "stateMutability": "view",
      "type": "function"
    },
    {
      "constant": true,
      "inputs": [],
      "name": "priceOfToken",
      "outputs": [
        {
          "name": "",
          "type": "uint256"
        }
      ],
      "payable": false,
      "stateMutability": "view",
      "type": "function"
    },
    {
      "constant": false,
      "inputs": [
        {
          "name": "_from",
          "type": "address"
        },
        {
          "name": "_to",
          "type": "address"
        },
        {
          "name": "_value",
          "type": "uint256"
        }
      ],
      "name": "transferFrom",
      "outputs": [
        {
          "name": "",
          "type": "bool"
        }
      ],
      "payable": false,
      "stateMutability": "nonpayable",
      "type": "function"
    },
    {
      "constant": true,
      "inputs": [],
      "name": "decimals",
      "outputs": [
        {
          "name": "",
          "type": "uint256"
        }
      ],
      "payable": false,
      "stateMutability": "view",
      "type": "function"
    },
    {
      "constant": false,
      "inputs": [
        {
          "name": "daysToExtend",
          "type": "uint256"
        }
      ],
      "name": "extendDeadline",
      "outputs": [],
      "payable": false,
      "stateMutability": "nonpayable",
      "type": "function"
    },
    {
      "constant": false,
      "inputs": [],
      "name": "unpause",
      "outputs": [],
      "payable": false,
      "stateMutability": "nonpayable",
      "type": "function"
    },
    {
      "constant": true,
      "inputs": [],
      "name": "paused",
      "outputs": [
        {
          "name": "",
          "type": "bool"
        }
      ],
      "payable": false,
      "stateMutability": "view",
      "type": "function"
    },
    {
      "constant": false,
      "inputs": [
        {
          "name": "_spender",
          "type": "address"
        },
        {
          "name": "_subtractedValue",
          "type": "uint256"
        }
      ],
      "name": "decreaseApproval",
      "outputs": [
        {
          "name": "",
          "type": "bool"
        }
      ],
      "payable": false,
      "stateMutability": "nonpayable",
      "type": "function"
    },
    {
      "constant": true,
      "inputs": [
        {
          "name": "_owner",
          "type": "address"
        }
      ],
      "name": "balanceOf",
      "outputs": [
        {
          "name": "balance",
          "type": "uint256"
        }
      ],
      "payable": false,
      "stateMutability": "view",
      "type": "function"
    },
    {
      "constant": false,
      "inputs": [],
      "name": "pause",
      "outputs": [],
      "payable": false,
      "stateMutability": "nonpayable",
      "type": "function"
    },
    {
      "constant": true,
      "inputs": [],
      "name": "owner",
      "outputs": [
        {
          "name": "",
          "type": "address"
        }
      ],
      "payable": false,
      "stateMutability": "view",
      "type": "function"
    },
    {
      "constant": true,
      "inputs": [],
      "name": "symbol",
      "outputs": [
        {
          "name": "",
          "type": "string"
        }
      ],
      "payable": false,
      "stateMutability": "view",
      "type": "function"
    },
    {
      "constant": false,
      "inputs": [
        {
          "name": "_to",
          "type": "address"
        },
        {
          "name": "_value",
          "type": "uint256"
        }
      ],
      "name": "transfer",
      "outputs": [
        {
          "name": "",
          "type": "bool"
        }
      ],
      "payable": false,
      "stateMutability": "nonpayable",
      "type": "function"
    },
    {
      "constant": true,
      "inputs": [],
      "name": "priceOfTokenPREICO",
      "outputs": [
        {
          "name": "",
          "type": "uint256"
        }
      ],
      "payable": false,
      "stateMutability": "view",
      "type": "function"
    },
    {
      "constant": false,
      "inputs": [],
      "name": "buyTokens",
      "outputs": [],
      "payable": true,
      "stateMutability": "payable",
      "type": "function"
    },
    {
      "constant": false,
      "inputs": [
        {
          "name": "_spender",
          "type": "address"
        },
        {
          "name": "_addedValue",
          "type": "uint256"
        }
      ],
      "name": "increaseApproval",
      "outputs": [
        {
          "name": "",
          "type": "bool"
        }
      ],
      "payable": false,
      "stateMutability": "nonpayable",
      "type": "function"
    },
    {
      "constant": true,
      "inputs": [
        {
          "name": "_owner",
          "type": "address"
        },
        {
          "name": "_spender",
          "type": "address"
        }
      ],
      "name": "allowance",
      "outputs": [
        {
          "name": "",
          "type": "uint256"
        }
      ],
      "payable": false,
      "stateMutability": "view",
      "type": "function"
    },
    {
      "constant": false,
      "inputs": [
        {
          "name": "newOwner",
          "type": "address"
        }
      ],
      "name": "transferOwnership",
      "outputs": [],
      "payable": false,
      "stateMutability": "nonpayable",
      "type": "function"
    },
    {
      "inputs": [],
      "payable": false,
      "stateMutability": "nonpayable",
      "type": "constructor"
    },
    {
      "payable": true,
      "stateMutability": "payable",
      "type": "fallback"
    },
    {
      "anonymous": false,
      "inputs": [],
      "name": "Pause",
      "type": "event"
    },
    {
      "anonymous": false,
      "inputs": [],
      "name": "Unpause",
      "type": "event"
    },
    {
      "anonymous": false,
      "inputs": [
        {
          "indexed": true,
          "name": "previousOwner",
          "type": "address"
        },
        {
          "indexed": true,
          "name": "newOwner",
          "type": "address"
        }
      ],
      "name": "OwnershipTransferred",
      "type": "event"
    },
    {
      "anonymous": false,
      "inputs": [
        {
          "indexed": true,
          "name": "owner",
          "type": "address"
        },
        {
          "indexed": true,
          "name": "spender",
          "type": "address"
        },
        {
          "indexed": false,
          "name": "value",
          "type": "uint256"
        }
      ],
      "name": "Approval",
      "type": "event"
    },
    {
      "anonymous": false,
      "inputs": [
        {
          "indexed": true,
          "name": "from",
          "type": "address"
        },
        {
          "indexed": true,
          "name": "to",
          "type": "address"
        },
        {
          "indexed": false,
          "name": "value",
          "type": "uint256"
        }
      ],
      "name": "Transfer",
      "type": "event"
    }
  ],
  "bytecode": "0x60606040526000600360146101000a81548160ff0219169083151502179055506601c6bf526340006005556602f5e9891d3880600655341561004057600080fd5b600033600360006101000a81548173ffffffffffffffffffffffffffffffffffffffff021916908373ffffffffffffffffffffffffffffffffffffffff1602179055506012600a0a6402540be400026000819055506012600a0a64011b1f3f8002600781905550600054905080600160003373ffffffffffffffffffffffffffffffffffffffff1673ffffffffffffffffffffffffffffffffffffffff1681526020019081526020016000208190555033600360006101000a81548173ffffffffffffffffffffffffffffffffffffffff021916908373ffffffffffffffffffffffffffffffffffffffff16021790555033600c60006101000a81548173ffffffffffffffffffffffffffffffffffffffff021916908373ffffffffffffffffffffffffffffffffffffffff16021790555042600881905550650161cfe2c1ff6009819055506501612ab59a00600a81905550650160df153c18600b81905550506119a2806101b06000396000f300606060405260043610610112576000357c0100000000000000000000000000000000000000000000000000000000900463ffffffff16806306fdde0314610138578063095ea7b3146101c657806318160ddd146102205780631b9cbdfb1461024957806323b872dd14610272578063313ce567146102eb578063389b7533146103145780633f4ba83a146103375780635c975abb1461034c578063661884631461037957806370a08231146103d35780638456cb59146104205780638da5cb5b1461043557806395d89b411461048a578063a9059cbb14610518578063ad224cc614610572578063d0febe4c1461059b578063d73dd623146105a5578063dd62ed3e146105ff578063f2fde38b1461066b575b600360149054906101000a900460ff1615151561012e57600080fd5b6101366106a4565b005b341561014357600080fd5b61014b61089f565b6040518080602001828103825283818151815260200191508051906020019080838360005b8381101561018b578082015181840152602081019050610170565b50505050905090810190601f1680156101b85780820380516001836020036101000a031916815260200191505b509250505060405180910390f35b34156101d157600080fd5b610206600480803573ffffffffffffffffffffffffffffffffffffffff169060200190919080359060200190919050506108d8565b604051808215151515815260200191505060405180910390f35b341561022b57600080fd5b6102336109ca565b6040518082815260200191505060405180910390f35b341561025457600080fd5b61025c6109d0565b6040518082815260200191505060405180910390f35b341561027d57600080fd5b6102d1600480803573ffffffffffffffffffffffffffffffffffffffff1690602001909190803573ffffffffffffffffffffffffffffffffffffffff169060200190919080359060200190919050506109d6565b604051808215151515815260200191505060405180910390f35b34156102f657600080fd5b6102fe610d95565b6040518082815260200191505060405180910390f35b341561031f57600080fd5b6103356004808035906020019091905050610d9a565b005b341561034257600080fd5b61034a610e09565b005b341561035757600080fd5b61035f610ec9565b604051808215151515815260200191505060405180910390f35b341561038457600080fd5b6103b9600480803573ffffffffffffffffffffffffffffffffffffffff16906020019091908035906020019091905050610edc565b604051808215151515815260200191505060405180910390f35b34156103de57600080fd5b61040a600480803573ffffffffffffffffffffffffffffffffffffffff1690602001909190505061116d565b6040518082815260200191505060405180910390f35b341561042b57600080fd5b6104336111b6565b005b341561044057600080fd5b610448611277565b604051808273ffffffffffffffffffffffffffffffffffffffff1673ffffffffffffffffffffffffffffffffffffffff16815260200191505060405180910390f35b341561049557600080fd5b61049d61129d565b6040518080602001828103825283818151815260200191508051906020019080838360005b838110156104dd5780820151818401526020810190506104c2565b50505050905090810190601f16801561050a5780820380516001836020036101000a031916815260200191505b509250505060405180910390f35b341561052357600080fd5b610558600480803573ffffffffffffffffffffffffffffffffffffffff169060200190919080359060200190919050506112d6565b604051808215151515815260200191505060405180910390f35b341561057d57600080fd5b6105856114fa565b6040518082815260200191505060405180910390f35b6105a36106a4565b005b34156105b057600080fd5b6105e5600480803573ffffffffffffffffffffffffffffffffffffffff16906020019091908035906020019091905050611500565b604051808215151515815260200191505060405180910390f35b341561060a57600080fd5b610655600480803573ffffffffffffffffffffffffffffffffffffffff1690602001909190803573ffffffffffffffffffffffffffffffffffffffff169060200190919050506116fc565b6040518082815260200191505060405180910390f35b341561067657600080fd5b6106a2600480803573ffffffffffffffffffffffffffffffffffffffff16906020019091905050611783565b005b6000806000600360149054906101000a900460ff161515156106c557600080fd5b60003373ffffffffffffffffffffffffffffffffffffffff16141515156106eb57600080fd5b60085442101515156106fc57600080fd5b600b54421115151561070d57600080fd5b6000925060095442101561077d576005546012600a0a340281151561072e57fe5b0492506000915062093a806008540142101561074d57600a9150610762565b621275006008540142101561076157600591505b5b606482840281151561077057fe5b04905080830192506107a8565b600a544211156107a2576006546012600a0a340281151561079a57fe5b0492506107a7565b600080fd5b5b8260026000600360009054906101000a900473ffffffffffffffffffffffffffffffffffffffff1673ffffffffffffffffffffffffffffffffffffffff1673ffffffffffffffffffffffffffffffffffffffff16815260200190815260200160002060003373ffffffffffffffffffffffffffffffffffffffff1673ffffffffffffffffffffffffffffffffffffffff16815260200190815260200160002060008282540192505081905550610881600360009054906101000a900473ffffffffffffffffffffffffffffffffffffffff1633856109d6565b503460046000828254019250508190555061089a6118db565b505050565b6040805190810160405280600881526020017f526170696470617900000000000000000000000000000000000000000000000081525081565b600081600260003373ffffffffffffffffffffffffffffffffffffffff1673ffffffffffffffffffffffffffffffffffffffff16815260200190815260200160002060008573ffffffffffffffffffffffffffffffffffffffff1673ffffffffffffffffffffffffffffffffffffffff168152602001908152602001600020819055508273ffffffffffffffffffffffffffffffffffffffff163373ffffffffffffffffffffffffffffffffffffffff167f8c5be1e5ebec7d5bd14f71427d1e84f3dd0314c0f7b2291e5b200ac8c7c3b925846040518082815260200191505060405180910390a36001905092915050565b60005481565b60065481565b60008073ffffffffffffffffffffffffffffffffffffffff168373ffffffffffffffffffffffffffffffffffffffff1614151515610a1357600080fd5b600160008573ffffffffffffffffffffffffffffffffffffffff1673ffffffffffffffffffffffffffffffffffffffff168152602001908152602001600020548211151515610a6157600080fd5b600260008573ffffffffffffffffffffffffffffffffffffffff1673ffffffffffffffffffffffffffffffffffffffff16815260200190815260200160002060003373ffffffffffffffffffffffffffffffffffffffff1673ffffffffffffffffffffffffffffffffffffffff168152602001908152602001600020548211151515610aec57600080fd5b610b3e82600160008773ffffffffffffffffffffffffffffffffffffffff1673ffffffffffffffffffffffffffffffffffffffff1681526020019081526020016000205461193f90919063ffffffff16565b600160008673ffffffffffffffffffffffffffffffffffffffff1673ffffffffffffffffffffffffffffffffffffffff16815260200190815260200160002081905550610bd382600160008673ffffffffffffffffffffffffffffffffffffffff1673ffffffffffffffffffffffffffffffffffffffff1681526020019081526020016000205461195890919063ffffffff16565b600160008573ffffffffffffffffffffffffffffffffffffffff1673ffffffffffffffffffffffffffffffffffffffff16815260200190815260200160002081905550610ca582600260008773ffffffffffffffffffffffffffffffffffffffff1673ffffffffffffffffffffffffffffffffffffffff16815260200190815260200160002060003373ffffffffffffffffffffffffffffffffffffffff1673ffffffffffffffffffffffffffffffffffffffff1681526020019081526020016000205461193f90919063ffffffff16565b600260008673ffffffffffffffffffffffffffffffffffffffff1673ffffffffffffffffffffffffffffffffffffffff16815260200190815260200160002060003373ffffffffffffffffffffffffffffffffffffffff1673ffffffffffffffffffffffffffffffffffffffff168152602001908152602001600020819055508273ffffffffffffffffffffffffffffffffffffffff168473ffffffffffffffffffffffffffffffffffffffff167fddf252ad1be2c89b69c2b068fc378daa952ba7f163c4a11628f55a4df523b3ef846040518082815260200191505060405180910390a3600190509392505050565b601281565b600360009054906101000a900473ffffffffffffffffffffffffffffffffffffffff1673ffffffffffffffffffffffffffffffffffffffff163373ffffffffffffffffffffffffffffffffffffffff16141515610df657600080fd5b620151808102600b5401600b8190555050565b600360009054906101000a900473ffffffffffffffffffffffffffffffffffffffff1673ffffffffffffffffffffffffffffffffffffffff163373ffffffffffffffffffffffffffffffffffffffff16141515610e6557600080fd5b600360149054906101000a900460ff161515610e8057600080fd5b6000600360146101000a81548160ff0219169083151502179055507f7805862f689e2f13df9f062ff482ad3ad112aca9e0847911ed832e158c525b3360405160405180910390a1565b600360149054906101000a900460ff1681565b600080600260003373ffffffffffffffffffffffffffffffffffffffff1673ffffffffffffffffffffffffffffffffffffffff16815260200190815260200160002060008573ffffffffffffffffffffffffffffffffffffffff1673ffffffffffffffffffffffffffffffffffffffff16815260200190815260200160002054905080831115610fed576000600260003373ffffffffffffffffffffffffffffffffffffffff1673ffffffffffffffffffffffffffffffffffffffff16815260200190815260200160002060008673ffffffffffffffffffffffffffffffffffffffff1673ffffffffffffffffffffffffffffffffffffffff16815260200190815260200160002081905550611081565b611000838261193f90919063ffffffff16565b600260003373ffffffffffffffffffffffffffffffffffffffff1673ffffffffffffffffffffffffffffffffffffffff16815260200190815260200160002060008673ffffffffffffffffffffffffffffffffffffffff1673ffffffffffffffffffffffffffffffffffffffff168152602001908152602001600020819055505b8373ffffffffffffffffffffffffffffffffffffffff163373ffffffffffffffffffffffffffffffffffffffff167f8c5be1e5ebec7d5bd14f71427d1e84f3dd0314c0f7b2291e5b200ac8c7c3b925600260003373ffffffffffffffffffffffffffffffffffffffff1673ffffffffffffffffffffffffffffffffffffffff16815260200190815260200160002060008873ffffffffffffffffffffffffffffffffffffffff1673ffffffffffffffffffffffffffffffffffffffff168152602001908152602001600020546040518082815260200191505060405180910390a3600191505092915050565b6000600160008373ffffffffffffffffffffffffffffffffffffffff1673ffffffffffffffffffffffffffffffffffffffff168152602001908152602001600020549050919050565b600360009054906101000a900473ffffffffffffffffffffffffffffffffffffffff1673ffffffffffffffffffffffffffffffffffffffff163373ffffffffffffffffffffffffffffffffffffffff1614151561121257600080fd5b600360149054906101000a900460ff1615151561122e57600080fd5b6001600360146101000a81548160ff0219169083151502179055507f6985a02210a168e66602d3235cb6db0e70f92b3ba4d376a33c0f3d9434bff62560405160405180910390a1565b600360009054906101000a900473ffffffffffffffffffffffffffffffffffffffff1681565b6040805190810160405280600381526020017f524450000000000000000000000000000000000000000000000000000000000081525081565b60008073ffffffffffffffffffffffffffffffffffffffff168373ffffffffffffffffffffffffffffffffffffffff161415151561131357600080fd5b600160003373ffffffffffffffffffffffffffffffffffffffff1673ffffffffffffffffffffffffffffffffffffffff16815260200190815260200160002054821115151561136157600080fd5b6113b382600160003373ffffffffffffffffffffffffffffffffffffffff1673ffffffffffffffffffffffffffffffffffffffff1681526020019081526020016000205461193f90919063ffffffff16565b600160003373ffffffffffffffffffffffffffffffffffffffff1673ffffffffffffffffffffffffffffffffffffffff1681526020019081526020016000208190555061144882600160008673ffffffffffffffffffffffffffffffffffffffff1673ffffffffffffffffffffffffffffffffffffffff1681526020019081526020016000205461195890919063ffffffff16565b600160008573ffffffffffffffffffffffffffffffffffffffff1673ffffffffffffffffffffffffffffffffffffffff168152602001908152602001600020819055508273ffffffffffffffffffffffffffffffffffffffff163373ffffffffffffffffffffffffffffffffffffffff167fddf252ad1be2c89b69c2b068fc378daa952ba7f163c4a11628f55a4df523b3ef846040518082815260200191505060405180910390a36001905092915050565b60055481565b600061159182600260003373ffffffffffffffffffffffffffffffffffffffff1673ffffffffffffffffffffffffffffffffffffffff16815260200190815260200160002060008673ffffffffffffffffffffffffffffffffffffffff1673ffffffffffffffffffffffffffffffffffffffff1681526020019081526020016000205461195890919063ffffffff16565b600260003373ffffffffffffffffffffffffffffffffffffffff1673ffffffffffffffffffffffffffffffffffffffff16815260200190815260200160002060008573ffffffffffffffffffffffffffffffffffffffff1673ffffffffffffffffffffffffffffffffffffffff168152602001908152602001600020819055508273ffffffffffffffffffffffffffffffffffffffff163373ffffffffffffffffffffffffffffffffffffffff167f8c5be1e5ebec7d5bd14f71427d1e84f3dd0314c0f7b2291e5b200ac8c7c3b925600260003373ffffffffffffffffffffffffffffffffffffffff1673ffffffffffffffffffffffffffffffffffffffff16815260200190815260200160002060008773ffffffffffffffffffffffffffffffffffffffff1673ffffffffffffffffffffffffffffffffffffffff168152602001908152602001600020546040518082815260200191505060405180910390a36001905092915050565b6000600260008473ffffffffffffffffffffffffffffffffffffffff1673ffffffffffffffffffffffffffffffffffffffff16815260200190815260200160002060008373ffffffffffffffffffffffffffffffffffffffff1673ffffffffffffffffffffffffffffffffffffffff16815260200190815260200160002054905092915050565b600360009054906101000a900473ffffffffffffffffffffffffffffffffffffffff1673ffffffffffffffffffffffffffffffffffffffff163373ffffffffffffffffffffffffffffffffffffffff161415156117df57600080fd5b600073ffffffffffffffffffffffffffffffffffffffff168173ffffffffffffffffffffffffffffffffffffffff161415151561181b57600080fd5b8073ffffffffffffffffffffffffffffffffffffffff16600360009054906101000a900473ffffffffffffffffffffffffffffffffffffffff1673ffffffffffffffffffffffffffffffffffffffff167f8be0079c531659141344cd1fd0a4f28419497f9722a3daafe3b4186f6b6457e060405160405180910390a380600360006101000a81548173ffffffffffffffffffffffffffffffffffffffff021916908373ffffffffffffffffffffffffffffffffffffffff16021790555050565b600c60009054906101000a900473ffffffffffffffffffffffffffffffffffffffff1673ffffffffffffffffffffffffffffffffffffffff166108fc349081150290604051600060405180830381858888f19350505050151561193d57600080fd5b565b600082821115151561194d57fe5b818303905092915050565b600080828401905083811015151561196c57fe5b80915050929150505600a165627a7a723058208fae801dcd4964f7d1f13ca84a75e2a4dc4a5ec81273ad0f15556196c9705c9c0029",
  "source": "pragma solidity 0.4.18;\n\nimport 'zeppelin-solidity/contracts/math/SafeMath.sol';\nimport 'zeppelin-solidity/contracts/token/StandardToken.sol';\nimport 'zeppelin-solidity/contracts/lifecycle/Pausable.sol';\n\ncontract RapidCoin is StandardToken, Pausable {\n    string public constant name = 'Rapidpay';\n    uint public constant decimals = 18;\n    string public constant symbol = 'RDP';\n    uint amountRaised;\n    uint public priceOfTokenPREICO=500000000000000;// 1 ETH = 2000 RDP\n    uint public priceOfToken = 833333330000000; //1 ETH  =  1200 RDP\n    uint256 tokenSaleLimit;\n    uint256 preSaleStartDate;\n    uint256 preSaleEndDate;\n    uint256 saleStartDate;\n    uint256 saleEndDate;\n    address walletForBalanace;\n    //TODO presale 4 weeks but full sale start after 4 week\n    function RapidCoin () public {\n        totalSupply = 10 * (10 ** 9) * (10 ** decimals); //10 billion\n        tokenSaleLimit = 475 * (10 ** 7) * (10 ** decimals); //4.75 billions\n        uint256 ownerTokens = totalSupply; //we assign 10 million to acccountant firstly. \n        balances[msg.sender] = ownerTokens;\n        owner = msg.sender;\n        walletForBalanace = msg.sender;\n        preSaleStartDate = now;//1516840000000; //January 25 2018 00 : 00  UTC\n        preSaleEndDate = 1519611199999; // FEB 26 2018 00 : 00 UTC\n        saleStartDate = 1516840000000; //January 25 2018 00 : 00  UTC\n        saleEndDate = 1515571199000; //January 10 2018 UTC 8 AM and 4 week after presale\n    }\n    function () external payable whenNotPaused {\n       buyTokens();\n    }//end of function callback\n    \n    \n    function buyTokens() public payable whenNotPaused {\n       require(msg.sender != 0x0);\n        require(now>=preSaleStartDate);\n        require(now<=saleEndDate);\n        uint256 tokens = 0;\n       \n        if (now < preSaleEndDate) {\n            //presLe handle\n             tokens = (msg.value * (10 ** decimals)) / priceOfTokenPREICO;\n             uint bonus = 0;\n             if (now < (preSaleStartDate + 7 days)){\n                 bonus = 10;\n             }else if (now < (preSaleStartDate + 14 days)) {\n                 bonus = 5;\n             }\n            uint bonusTokens = (tokens * bonus) / 100;\n            tokens += bonusTokens;\n            \n        }else if (now > saleStartDate) {\n            //here sale start date\n            tokens = (msg.value * (10 ** decimals)) / priceOfToken;\n        }else {\n            revert(); //this revert is between pre sale and sale time gap\n        }\n        allowed[owner][msg.sender] += tokens;\n        transferFrom(owner,msg.sender,tokens);\n        amountRaised += msg.value;\n        forwardFunds();\n    }//end of funciton\n\n    // send ether to the fund collection wallet\n  // override to create custom fund forwarding mechanisms\n  function forwardFunds() internal {\n    walletForBalanace.transfer(msg.value);\n  }\n\n       /**\n   * @dev called by the owner to extend deadline relative to last deadLine Time,\n   * to accept ether and transfer tokens\n   */\n   function extendDeadline(uint daysToExtend)public onlyOwner {\n       saleEndDate = saleEndDate + daysToExtend * 1 days;\n   }\n\n}//end of contract\n",
  "sourcePath": "/Users/derain/Projects/coinrapid-global-ico-audit/contracts/RapidCoin.sol",
  "compiler": {
    "name": "solc",
    "version": "0.4.18+commit.9cf6e910.Emscripten.clang"
  },
  "schemaVersion": "1.0.1",
  "updatedAt": "2017-12-26T18:56:47.143Z"
}